:100000000C94DB000C94130D0C94EC0C0C94C50CAC
:100010000C949E0C0C9403010C9403010C94770C2B
:100020000C9403010C9403010C948C090C94FB09AF
:100030000C9403010C9403010C9403010C94030130
:100040000C9403010C9403010C9403010C94030120
:100050000C9403010C9403010C9403010C942D0CDB
:100060000C9403010C9403010C9403010C94030100
:100070000C9403010C9403010C9403010C940301F0
:100080000C9403010C9403010C9403010C940301E0
:100090000C9403010C9403010C9403010C940301D0
:1000A0000C9403010C9403010C940301070605044E
:1000B0000100080A0B0C0D090000000024002700B5
:1000C0002A002D00300000000000250028002B0031
:1000D0002E0031000000000200090F00000304019F
:1000E000000C000000000000000000000000000004
:1000F000000000080B0002020200000904000001D9
:10010000020200000524001001052401010104245D
:1001100002060524060001070581031000400904BA
:100120000100020A00000007050202400000070566
:1001300083024000000403090412010002EF0201DF
:100140004041233680000101020301417264756958
:100150006E6F204C4C430041726475696E6F204C89
:10016000656F6E6172646F00040802011040804088
:1001700010204080408008020401804020100201CD
:10018000108010204040200000000023002600299D
:10019000002C002F000404040404030405020202DE
:1001A0000204030202020206060606060604040210
:1001B00002020404660D11241FBECFEFDAE0DEBF99
:1001C000CDBF11E0A0E0B1E0E6EBFFE202C0059098
:1001D0000D92A434B107D9F722E0A4E4B1E001C044
:1001E0001D92A03BB207E1F710E0CBEDD0E004C0D8
:1001F0002197FE010E948816CA3DD107C9F70E94C7
:10020000AE100C94D9170C940000CF92DF92EF92AD
:10021000FF920F931F93CF93DF93D901E8016A01F7
:10022000F9014217530714F06901FA01882309F410
:1002300040C0CB016C157D050CF4C6019F018E17E3
:100240009F070CF49C01A417B50734F4CF01821B5F
:10025000930B9C012C0D3D1D0D2C000CEE08FF088E
:10026000032E000C440B550B2C193D094E095F0958
:10027000AEEFBFEF0E94EC149F01FF0F440B550B34
:100280002C193D094E095F090E94CD14DA01C901FC
:100290008F5F9F47A109B1098883998382E090E02D
:1002A000DF91CF911F910F91FF90EF90DF90CF9052
:1002B000089590E080E0F4CF8230B1F140F48823DB
:1002C00009F446C0813009F457C080E008958330B6
:1002D000B1F08730D1F78AEF91E09093A901809334
:1002E000A8018EE697E090931F0180931E018091F4
:1002F0006A008F7C806180936A00EE9A13C08AEF57
:1003000091E09093A1018093A00186E597E09093FE
:10031000170180931601809169008C7F8160809322
:100320006900E89A81E008958AEF91E09093A30133
:100330008093A2018CE597E09093190180931801B6
:1003400080916900837F846080936900E99AEACF95
:100350008AEF91E09093A5018093A40182E697E053
:1003600090931B0180931A01809169008F7C8061BA
:1003700080936900EA9AD6CF2AEF31E03093A70143
:100380002093A60128E637E030931D0120931C013D
:10039000909169009F73906490936900EB9A08951F
:1003A000FC0180919F01882311F13FB7F89482E00E
:1003B0008093E9002091F200822F90E01816190630
:1003C00014F481E090E0882339F0289844E64093C3
:1003D0009E014091F1004083222339F02091F200E8
:1003E000211103C02BE62093E8003FBF08958FEF53
:1003F0009FEF0895CF93DF931F92CDB7DEB7698348
:10040000DC01ED91FC910280F381E02D41E050E0B0
:10041000BE016F5F7F4F09950F90DF91CF910895D7
:1004200083E08093E9008091F200882319F08AE349
:100430008093E8000895CF93DF931F92CDB7DEB786
:10044000FC018485958597FD08C02FEF3FEF358728
:1004500024870F90DF91CF910895CE0101960E94DD
:10046000D001019719F4898190E0F3CF8FEF9FEFCE
:10047000F0CF0F931F93CF93DF931F92CDB7DEB7CB
:100480008C01FC018485958597FF0BC0CE010196F8
:100490000E94D001019771F4898190E0F80195875D
:1004A0008487F801848595850F90DF91CF911F9106
:1004B0000F9108958FEF9FEFF1CFFC018485958513
:1004C00097FD0BC09FB7F89482E08093E90080917C
:1004D000F2009FBF90E0019608959FB7F89482E0E4
:1004E0008093E9008091F2009FBF90E008954091D1
:1004F000740150917501209172013091730142177E
:100500005307B4F49091E8009570E1F39091E800FE
:1005100092FD19C08093F100809174019091750152
:1005200001968F739927892B19F48EEF8093E80039
:10053000809174019091750101969093750180935B
:10054000740181E0089580E00895EF92FF920F9387
:100550001F93CF93DF93F82E192FE62E042F81E0FF
:10056000860F880F0E94770283E00E947702CF2DCA
:10057000D12FEC0EFD2EF11CCE15DF05B9F007FFD3
:1005800013C0FE0184910E947702182F80E00E9420
:100590007702812321968111EFCFDF91CF911F91B7
:1005A0000F91FF90EF9008958881EDCF81E0F5CF16
:1005B000DF92EF92FF920F931F93CF93DF93D82E8A
:1005C0008A01EB017B01E40EF51ECE15DF0559F023
:1005D000D7FE12C0FE0184910E94770221968111FC
:1005E000F4CF0FEF1FEFC801DF91CF911F910F9153
:1005F000FF90EF90DF9008958881EECF2FB7F894A9
:1006000087708093E9009091E800892F807295FFB0
:1006100004C09091F20080E4891B2FBF089583E00D
:100620000E94FE0290E00895615030F02091F100A8
:10063000FC0120830196F8CF289884E680939E01E0
:10064000089580916A0181110DC082E08093660156
:1006500084E080936701109269011092680181E043
:1006600080936A0186E691E008950F931F93CF93DC
:10067000DF931F92CDB7DEB782E0898342E450E07A
:1006800063EF70E080E80E94D8020E942103DC0141
:1006900012960D911C910115110589F0D801ED916B
:1006A000FC910280F381E02DBE016F5F7F4FC80196
:1006B000099597FD04C0F80100851185ECCF89816B
:1006C0000F90DF91CF911F910F91089581508F303E
:1006D00008F047C0E82FF0E0E059FC4F0C94881672
:1006E0008D0391037F0385038903B103B103B10334
:1006F00094039A039E03A203A803B103AC03809161
:1007000080008F77809380000895809180008F7D96
:10071000F9CF80918000877FF5CF84B58F7784BD36
:10072000089584B58F7DFBCF809190008F77809363
:1007300090000895809190008F7DF9CF8091900076
:10074000877FF5CF8091C0008F778093C000089598
:100750008091C0008F7DF9CF8091C200877F809308
:10076000C2000895CF93DF93282F30E0F901EC52B7
:10077000FF4F8491F901E859FE4FD491F901EB56EE
:10078000FE4FC491CC23A1F081110E946603EC2F8F
:10079000F0E0EE0FFF1FE957FE4FA591B491EC91E9
:1007A000ED2381E090E009F480E0DF91CF9108959E
:1007B00080E090E0FACF1F93CF93DF93282F30E0B3
:1007C000F901EC52FF4F8491F901E859FE4FD491A1
:1007D000F901EB56FE4FC491CC23A9F0162F8111DD
:1007E0000E946603EC2FF0E0EE0FFF1FEA53FF4F6D
:1007F000A591B4918FB7F894EC91111108C0D095E0
:10080000DE23DC938FBFDF91CF911F910895DE2B04
:10081000F8CFCF93DF9390E0FC01E859FE4F24918D
:100820008B569E4FFC0184918823C9F090E0880F7D
:10083000991FFC01E854FF4FA591B491FC01EA53C4
:10084000FF4FC591D49161110DC09FB7F8948C9161
:10085000209582238C938881282328839FBFDF9152
:10086000CF910895623051F49FB7F8943C91822F54
:10087000809583238C93E8812E2BEFCF8FB7F8944C
:10088000EC912E2B2C938FBFEACFE82FF0E0EC52A7
:10089000FF4FE491E150EF3008F07CC0F0E0ED5AFA
:1008A000FB4F0C948816620467046C047604800481
:1008B000CA04CA04CA048A0494049E04A804B504A1
:1008C000CA04BD0484B5806884BD67BD089584B53D
:1008D000806284BD68BD08958091800080688093A7
:1008E0008000709389006093880008958091800053
:1008F00080628093800070938B0060938A000895DB
:100900008091800088608093800070938D00609358
:100910008C0008958091900080688093900070937F
:100920009900609398000895809190008062809370
:10093000900070939B0060939A00089580919000BE
:1009400088608093900070939D0060939C00089550
:100950008091C00080688093C0008091C0008F7B30
:100960008093C0006093CF0008958091C0008062A2
:100970008093C0006093D00008958091C200886089
:100980008093C2008091C2008B7F8093C2006093ED
:10099000D200089560E00C94DB03823108F08251AC
:1009A000E82FF0E0E455FF4FE49190917B008E2F0B
:1009B000880F880F80729F7D892B80937B00E77062
:1009C000E064E0937C0080917A00806480937A00F8
:1009D00080917A0086FDFCCF80917800909179001B
:1009E00008953FB7F8948091620190916301A091BE
:1009F0006401B091650126B5A89B05C02F3F19F091
:100A00000196A11DB11D3FBFBA2FA92F982F88278E
:100A1000BC01CD01620F711D811D911D42E0660F69
:100A2000771F881F991F4A95D1F70895CF92DF92BB
:100A3000EF92FF920E94F1046B017C010E94F1048D
:100A40006C197D098E099F09683E734081059105E7
:100A5000A8F3FF90EF90DF90CF9008957F928F9250
:100A60009F92AF92BF92CF92DF92EF92FF920F933D
:100A70001F93CF93DF93C82E8B017A0180919F0142
:100A8000811110C08FEF9FEFDF91CF911F910F91D8
:100A9000FF90EF90DF90CF90BF90AF909F908F909E
:100AA0007F9008958091780180FF05C08091E000DB
:100AB00082608093E000CE2DDF2DD12C8AEFB82EFE
:100AC0008C2D8770982E8C2D8072882E8C2D8074A2
:100AD000782E9AE3A92E209719F4DD2009F44EC050
:100AE0008C2D0E94FE02811106C0BA94BB2051F2E7
:100AF0000E941605F0CF8C171D0611F00CF08C2FFC
:100B00009FB7F8949092E9002091E80025FD02C07B
:100B10009FBFE1CF282F30E0C21BD30B882029F0E4
:100B20008150A0F01092F100FBCFF801C7FC0AC081
:100B3000815050F041914093F100FACF449140939D
:100B4000F10031968150D0F7020F131FDD2021F004
:100B5000A092E800D12CDCCF8091E80085FD07C091
:100B6000A092E800DD24D394209791F2F3CF209750
:100B700079F6772069F2A092E800CACF5D9884E602
:100B800080937701C70180CFCF93DF93EC018091F1
:100B90001501882331F083E00E942E0518161906EE
:100BA00034F081E090E09B838A8380E090E0DF91E5
:100BB000CF9108950895DC01FB0112962C911297B4
:100BC000848195812817190641F491818081813AA9
:100BD00031F49D7F81E0913009F080E00895813209
:100BE000E1F79B3029F482811F968C9381E0089570
:100BF0009A3099F7828150968C93F8CFDC01FB01F3
:100C000088E4808389E4818384E482831D969C91B7
:100C10001D979F709F5B93831D968D919C9124E0FF
:100C2000969587952A95E1F78F708F5B848385E091
:100C30000895EF92FF920F931F93CF93DF93FB01E1
:100C40002081213889F52381223271F5DC01129649
:100C50004C91248135814217130631F58C01FC013A
:100C6000C385D485F12CE12C209791F04C815D81D6
:100C70006A817B818E81811180E80E94D8028F3F3A
:100C8000980759F0E80EF91E0990D881C02DECCFD5
:100C900081E0D8011F968C93C701DF91CF911F91FE
:100CA0000F91FF90EF90089590E080E0F6CFCF9302
:100CB000DF93CDB7DEB769970FB6F894DEBF0FBEEE
:100CC000CDBFFC01DB018C918F5F8C939E012D5F6A
:100CD0003F4F8DE0D9011D928A95E9F729E02983DC
:100CE00084E08A8391E09D8383E08E832A8721E2DA
:100CF0002B879C879D879F8722E2288B27E02B8B61
:100D000025E02C8B8E8B20E430E0388F2F8B998F51
:100D100082818B8395858685998B8A8B8381806878
:100D20008D8B49E150E0BE016F5F7F4F80E00E94F4
:100D3000D80269960FB6F894DEBF0FBECDBFDF9123
:100D4000CF910895CF93DF9380915501811167C0B2
:100D500081E080934801809349012EE431E0309393
:100D60004B0120934A0110924D0110924C012AE24E
:100D700031E03093450120934401109250011092CC
:100D80004F011092520110925101809353018093B0
:100D9000540181EC80934E010E942103FC0181816A
:100DA00090914801482F490F5527551F483051054C
:100DB0009CF5A281B381109709F524E431E03383D7
:100DC000228320812093460180934701809149012D
:100DD000820F808320914A01A22FB0914B018A2F6C
:100DE000821B8917C8F481813D91C82FD0E0C05083
:100DF000DF4F38838F5F8183F2CFD90118962D9111
:100E00003C91199721153105C1F724E431E0199679
:100E10003C932E931897D5CF81E08093550184E4BD
:100E200091E0DF91CF910895DC01ED91FD918081FA
:100E3000ED91FD919081ED91FD916C9163708E2308
:100E400009F064609F2309F06860E1E3F7E0E60FD2
:100E5000F11D659565956D936D917D918D919D9138
:100E6000099423C01AC012C016C010C01EC009C009
:100E700014C013C006C019C009C00DC007C00DC002
:100E800014C062507040804090400BC06150704070
:100E90008040904006C06E5F01C06F5F7F4F8F4FF4
:100EA0009F4F9E938E937E936E9308958091A001A1
:100EB0009091A1010C9414078091A2019091A3013B
:100EC0000C9414078091A4019091A5010C9414072F
:100ED0008091A6019091A7010C9414078091A8011C
:100EE0009091A9010C941407EF92FF920F931F9316
:100EF000CF93DF938C017B01EA0181E0F8018083CD
:100F0000C8010E943F0DF8018081882391F0C13013
:100F1000D105B1F08701CC0FDD1FCE0DDF1DF8012B
:100F200080810E5F1F4F60E00E9409040C171D07AF
:100F3000B1F7DF91CF911F910F91FF90EF9008953E
:100F4000C701DF91CF911F910F91FF90EF900C940B
:100F50003A0D8F929F92AF92BF92CF92DF92EF9213
:100F6000FF920F931F93CF93DF93CDB7DEB7ADB64C
:100F7000BEB6809155022DB73EB7281B31090FB67A
:100F8000F8943EBF0FBE2DBF8DB79EB701966C0182
:100F9000E0902402F12C8091200290912102D60150
:100FA000FC019F01281B390B2E153F051CF42191D4
:100FB0002D93F7CF80912502882359F180911C024F
:100FC00090911D0228E097FD09C068E671E00E943B
:100FD00074166DE270E00E947416262F80911E0236
:100FE00090911F0268E097FD08C068E671E00E94DA
:100FF00074166DE270E00E947416F601EE0DFF1D8E
:1010000090E1699FB0011124262B2083F7013196CE
:101010007F0186010E0D1F1D20912A0230912B02A7
:1010200040912802509129026091060270910702B6
:101030008091260281700E940501E80EF91E86014A
:101040000E0D1F1D20912E0230912F0240912C0277
:1010500050912D0260910802709109028091260240
:10106000869581700E940501E80EF91E86010E0D1D
:101070001F1D209132023091330240913002509175
:10108000310260910A0270910B028091260282FB6C
:10109000882780F90E940501E80EF91E86010E0DD1
:1010A0001F1D209136023091370240913402509139
:1010B000350260910C0270910D028091260283FB33
:1010C000882780F90E940501E80EF91E86010E0DA1
:1010D0001F1D20913A0230913B02409138025091FD
:1010E000390260910E0270910F0280912602829562
:1010F00081700E940501E80EF91E86010E0D1F1D6C
:1011000020913E0230913F0240913C0250913D02BD
:1011100060911002709111028091260285FB882750
:1011200080F90E940501E80EF91E86010E0D1F1DB3
:10113000209142023091430240914002509141027D
:1011400060911402709115028091270281700E94B3
:101150000501E80EF91E86010E0D1F1D20914602A5
:101160003091470240914402509145026091120231
:101170007091130280912702869581700E9405016B
:10118000E80EF91E86010E0D1F1D20914A023091B6
:101190004B024091480250914902609116027091B1
:1011A00017028091270282FB882780F90E9405019F
:1011B000E80EF91E86010E0D1F1D20914E02309182
:1011C0004F0240914C0250914D0260911802709173
:1011D00019028091270283FB882780F90E9405016C
:1011E0008E0D9F1D8601080F191F2091520230910C
:1011F0005302409150025091510260911A02709135
:101200001B0280912702829581700E9405010E9435
:10121000A2064C01409155028091540250E07A019F
:10122000FFEFEF1AFF0A2DB73EB72E193F090FB691
:10123000F8943EBF0FBE2DBF0DB71EB70F5F1F4FF7
:10124000EDB7FEB78183B601C80101960E94D017A1
:10125000F4018381A701B80180640E942E050FB6B6
:10126000F894BEBE0FBEADBEDF91CF911F910F911E
:10127000FF90EF90DF90CF90BF90AF909F908F90B6
:10128000089590912302891700F5E82FE695E695D9
:10129000E6952091200230912102E20FF32FF11DFB
:1012A000282F277081E090E0A0E0B0E004C0880F14
:1012B000991FAA1FBB1F2A95D2F72081822B8083FA
:1012C0008091220281110C94A90708959091230224
:1012D000891708F5E82FE695E695E6952091200216
:1012E00030912102E20FF32FF11D282F277081E0AA
:1012F00090E0A0E0B0E004C0880F991FAA1FBB1FB8
:101300002A95D2F78095908189238083809122024B
:1013100081110C94A90708951F920F920FB60F9296
:1013200011248F939F938091E1009091E100937F2E
:101330009093E10083FF0FC01092E90091E0909339
:10134000EB001092EC0092E39093ED0010929F015D
:1013500098E09093F00082FF22C093E09093E90020
:101360009091F200992319F09AE39093E8009091FC
:101370007701992341F090917701915090937701F3
:10138000911101C05D9A90919E01992341F0909135
:101390009E01915090939E01911101C0289A84FF63
:1013A00018C08091E2008E7E81608093E20080917F
:1013B000E1008F7E8093E100809178018E7E8061D4
:1013C000809378019F918F910F900FBE0F901F9087
:1013D000189580FFF7CF8091E2008E7E8061809328
:1013E000E2008091E1008E7E8093E100809178019F
:1013F0008E7E8160E5CF1F920F920FB60F9211245F
:10140000CF92DF92EF92FF920F931F932F933F9310
:101410004F935F936F937F938F939F93AF93BF93FC
:10142000EF93FF93CF93DF93CDB7DEB76C97DEBF1B
:10143000CDBF1092E9008091E80083FF25C068E0ED
:10144000CE0145960E94140382EF8093E8008D89B7
:1014500087FF39C09091E80090FFFCCF982F9076DD
:1014600009F034C19E894F89588D2F89F88C9111CC
:1014700031C0803861F5809179018093F10010923C
:10148000F1008EEF8093E8006C960FB6F894DEBF03
:101490000FBECDBFDF91CF91FF91EF91BF91AF9183
:1014A0009F918F917F916F915F914F913F912F917C
:1014B0001F910F91FF90EF90DF90CF900F900FBE94
:1014C0000F901F9018959EEF9093E800C7CF109251
:1014D000F100D5CF913059F48111D3CF413051056E
:1014E00081F6809179018D7F80937901CACF933005
:1014F00049F48111C6CF4130510519F68091790127
:101500008260F2CF953041F48091E80080FFFCCFFB
:1015100020682093E300B5CF963009F0A9C00B8D69
:101520001C8D22E01092E900109275011092740156
:10153000F2122EC010927301109272010E943503B4
:101540001F8299E09983FA8291E09E8390EA9887BE
:101550009AEF99872091740130917501275F3F4F71
:101560003C832B838D831092E900109275011092B9
:101570007401109373010093720149E050E0BE01C1
:101580006F5F7F4F80E00E94D8020E94350379CFC1
:1015900010937301009372010E942103DC011296E3
:1015A0000D911C910115110509F451C1D801ED915E
:1015B000FC910480F581E02DBE016B5E7F4FC80178
:1015C0000995009709F03EC1F80100851185EACF21
:1015D000F3E0FF120EC08F89882309F440C08230E7
:1015E00061F440E860E187E591E00E94A502811185
:1015F00048CF81E28093EB0047CF813029F440E867
:101600006BE08BE491E0F1CF833099F70E942103E6
:10161000DC011296ED90FC908E010F5F1F4F680168
:10162000E114F10479F0D701ED91FC910680F78186
:10163000E02DB801C7010995080F111DF701E084DD
:10164000F184EECFD8011C92F60101900020E9F759
:101650003197BF016C197D0940E0C601C6CF65E333
:1016600071E0FB01449150E080E80E94D80209CF6C
:10167000973009F4BECF983021F481E08093F100D7
:1016800000CF993009F0FDCE837009F0B2CFE1E0D0
:10169000F1E081E031E096E32191222371F0809323
:1016A000E9003093EB00DF0111972C912093EC00BF
:1016B0009093ED008F5F873079F78EE78093EA0093
:1016C0001092EA008F8980939F01DBCE8B8D9C8DD9
:1016D0001092E900109275011092740190937301B9
:1016E00080937201898D811192C08E899D89913A72
:1016F00049F4813209F07DCF47E050E06EE071E0BF
:1017000080E0B3CF913209F074CF833269F48F89CE
:10171000988DB0E0A0E08093070190930801A0931A
:101720000901B0930A01ADCE803269F48091E800DE
:1017300082FFFCCF67E08EE091E00E9414038BEF04
:101740008093E8009ECE823209F09BCE8F898093F1
:101750001501EEEFFFE7859194918B3F9C4D51F180
:10176000E0E0F8E080910E0190910F01A09110014E
:10177000B0911101803B9440A105B105F1F4809135
:10178000150180FD1AC0EE3F8AE0F80789F587E76A
:1017900097E791838083809160008093760188E150
:1017A0009BE00FB6F894A895809360000FBE9093CD
:1017B000600067CEEEEFFAE0D5CF80819181873768
:1017C000974709F05ECEA89580916000886180936C
:1017D00060008091760180936000EE3F2AE0F2077E
:1017E00089F08091FE0A9091FF0A9183808349CE0F
:1017F000808191818737980751F29093FF0A8093F7
:10180000FE0AC5CF1092FF0A1092FE0A3ACE0E943D
:101810002103DC0112960D911C910115110509F4AB
:10182000E8CED801ED91FC910190F081E02DBE0150
:101830006B5E7F4FC8010995811123CEF8010085A9
:101840001185EBCF181619060CF41BCED2CEF1E0A1
:10185000FF12BECE69E371E004CF1F920F920FB664
:101860000F9211242F933F938F939F93AF93BF9326
:1018700080915E0190915F01A0916001B091610142
:1018800030915D0123E0230F2D3758F50196A11DFE
:10189000B11D20935D0180935E0190935F01A09341
:1018A0006001B09361018091620190916301A09108
:1018B0006401B09165010196A11DB11D8093620183
:1018C00090936301A0936401B0936501BF91AF91C0
:1018D0009F918F913F912F910F900FBE0F901F906E
:1018E000189526E8230F0296A11DB11DD2CF1F9295
:1018F0000F920FB60F9211242F933F934F935F9344
:101900006F937F938F939F93AF93BF93EF93FF93C7
:10191000E0911E01F0911F010995FF91EF91BF9198
:10192000AF919F918F917F916F915F914F913F9177
:101930002F910F900FBE0F901F9018951F920F922E
:101940000FB60F9211242F933F934F935F936F9392
:101950007F938F939F93AF93BF93EF93FF93E09108
:101960001C01F0911D010995FF91EF91BF91AF917D
:101970009F918F917F916F915F914F913F912F91A7
:101980000F900FBE0F901F9018951F920F920FB6D9
:101990000F9211242F933F934F935F936F937F93F5
:1019A0008F939F93AF93BF93EF93FF93E0911A01AF
:1019B000F0911B010995FF91EF91BF91AF919F911C
:1019C0008F917F916F915F914F913F912F910F90E8
:1019D0000FBE0F901F9018951F920F920FB60F9287
:1019E00011242F933F934F935F936F937F938F9324
:1019F0009F93AF93BF93EF93FF93E0911801F09102
:101A000019010995FF91EF91BF91AF919F918F912E
:101A10007F916F915F914F913F912F910F900FBEEA
:101A20000F901F9018951F920F920FB60F921124CE
:101A30002F933F934F935F936F937F938F939F93D6
:101A4000AF93BF93EF93FF93E0911601F0911701CD
:101A50000995FF91EF91BF91AF919F918F917F91E8
:101A60006F915F914F913F912F910F900FBE0F900B
:101A70001F90189560E0FC0180810C940904EF929E
:101A8000FF920F931F93CF93DF938C017B01EA01A9
:101A9000FC0154834383CA01880F991F0E94AB162F
:101AA000F80181839283D701FC0190E080E02D91C1
:101AB0003D91219331930196C817D907C1F7DF9162
:101AC000CF911F910F91FF90EF900895EF92FF92A9
:101AD0000F931F93CF93DF93CDB7DEB7C659D109CC
:101AE0000FB6F894DEBF0FBECDBF1092AD011092BD
:101AF000AC0188EE93E0A0E0B0E08093AE0190935B
:101B0000AF01A093B001B093B10186E391E090934F
:101B1000AB018093AA018FEF9FEF9093B701809361
:101B2000B60182E090E00E94AB168C0184E190E067
:101B3000D8018D939C931093AB020093AA0281E08D
:101B40008093A10241E050E0B80181EA92E00E9456
:101B50003F0D88E592E09093A7028093A60282EA67
:101B600093E09093A9028093A8028091A102882318
:101B700019F0C8010E943A0D82E090E00E94AB1675
:101B80008C0185E190E0F801918380831093A0029D
:101B900000939F0281E08093960241E050E0B801FB
:101BA00086E992E00E943F0D8AE893E090939C02C0
:101BB00080939B028FEF93E090939E0280939D020F
:101BC00080919602882319F0C8010E943A0D82E0A4
:101BD00090E00E94AB168C0183E190E0D8018D93D8
:101BE0009C93109395020093940281E080938B0262
:101BF00041E050E0B8018BE892E00E943F0D109266
:101C00009102109290028CE390E090939302809363
:101C1000920280918B02882319F0C8010E943A0D2C
:101C200084E090E00E94AB168C01FC0111821082CE
:101C300081E090E09383828310938A02009389026B
:101C40008093800242E050E0B80180E892E00E9478
:101C50003F0D80EE9CEF909386028093850280E298
:101C600093E090938802809387028091800288237A
:101C700051F060E0D8018C910E94090460E0F80105
:101C800082810E94090486E090E00E94AB16FC016C
:101C90008AE090E09183808380E190E09383828367
:101CA0008EE090E095838483F0937F02E0937E0240
:101CB00043E050E0BF0189E792E00E94740784E0AE
:101CC00090E00E94AB1628E030E0DC0111963C93D6
:101CD0002E9329E030E013963C932E931297909325
:101CE00078028093770242E050E0BC0182E792E004
:101CF0000E94740784E090E00E94AB1622E030E07E
:101D0000FC013183208324E030E0338322839093ED
:101D100071028093700242E050E0BC018BE692E0D9
:101D20000E94740782E090E00E94AB1627E030E04A
:101D3000DC012D933C9390936A028093690241E009
:101D400050E0BC0184E692E00E94740784E090E0D9
:101D50000E94AB1625E030E0FC013183208326E0B1
:101D600030E033832283909363028093620242E0E7
:101D700050E0BC018DE592E00E94740782E090E0A3
:101D80000E94AB1623E030E0DC012D933C9390934E
:101D90005C0280935B0241E050E0BC0186E592E08A
:101DA0000E947407109221021092200210922402C5
:101DB00010922902109228028FEF93E090932B0249
:101DC00080932A0210922D0210922C0290932F02DF
:101DD00080932E02109231021092300290933302BF
:101DE000809332021092350210923402909337029F
:101DF00080933602109239021092380290933B027F
:101E000080933A0210923D0210923C0290933F025E
:101E100080933E021092410210924002909343023E
:101E2000809342021092450210924402909347021E
:101E300080934602109249021092480290934B02FE
:101E400080934A0210924D0210924C0290934F02DE
:101E500080934E02109251021092500290935302BE
:101E60008093520273E0709354022CE1209323027A
:101E7000109225028CE3809326021092270265E0DF
:101E8000698381E08A8399E09B8334E03C83F1EAB3
:101E9000FD838E8345E84F83788769879A8749E178
:101EA0004B878C8749E24D872E8745E14F87188AFB
:101EB00045E2498B8A8B55E75B8B8C8B45E94D8BD3
:101EC0002E8B25E52F8B188E25E6298F1A8E21E87B
:101ED0002B8FE2E0EC8F5D8F8E8F4F8F38A329A37D
:101EE0007AA36BA38CA39DA38EA366E16FA388A79F
:101EF00080E889A786E28AA78FEF8BA78FE78CA758
:101F00005DA780E18EA74FA738ABF9AB1AAA9BABB0
:101F100082E38CAB9DAB83E38EAB9FAB84E388AF56
:101F200099AF85E38AAF2BAFECAF80EC8DAF8EAF6E
:101F30008EE390E00E94AB167C018EE3FE013196A9
:101F4000D70101900D928A95E1F787E090E00E9419
:101F5000AB168C01FC0111821082F382E2828EE3C7
:101F600090E09583848316820E94A206FC01A385DB
:101F7000B485109709F077C0148703878585968507
:101F8000D80114962D913C91820F931F96878587D7
:101F900090912302892F869586958695977009F0F2
:101FA0006AC08093240210912402812F90E0009750
:101FB00011F481E090E00E94AB169093210280938F
:101FC000200281E090912502911101C080E0185F0C
:101FD000810F809355021092070210920602109210
:101FE00009021092080210920B0210920A0210923B
:101FF0000D0210920C0210920F0210920E0210921B
:1020000011021092100210921302109212021092FA
:1020100015021092140210921702109216021092DA
:1020200019021092180210921B0210921A028FEFDE
:102030009FEF90931D0280931C0290931F02809348
:102040001E0290E080E02091240228171906A9F0D2
:10205000A4F0E0912002F0912102E80FF91F108214
:102060000196F1CFDC018D919C9111970097D1F7EA
:102070000D931C9383CF8F5F94CFE0918102F091F9
:10208000820202811381E080F18062E08E2D0E9445
:10209000090462E0802F0E940904C7019927FC010E
:1020A000EB56FE4FE491F0E0EE0FFF1FE957FE4FB5
:1020B000A591B491B093FB01A093FA01FC01E859FA
:1020C000FE4F44914093FE01C8019927FC01EB5655
:1020D000FE4FE491F0E0EE0FFF1FE957FE4F259110
:1020E00034913093FD012093FC01FC01E859FE4F2F
:1020F000E491E093FF01109201021092020210920B
:102100000302109204028BE39FE10197F1F78C9197
:10211000842391E009F490E0D9018C91E82309F03F
:102120009260909300028E2D0E945C0180930502C4
:10213000802F0E945C0190910502890F8093050217
:10214000CA56DF4F0FB6F894DEBF0FBECDBFDF918A
:10215000CF911F910F91FF90EF900895CF93DF9350
:10216000CDB7DEB72C970FB6F894DEBF0FBECDBF4C
:10217000789484B5826084BD84B5816084BD85B562
:10218000826085BD85B5816085BD80916E0081606E
:1021900080936E0010928100809181008260809314
:1021A0008100809181008160809381008091800016
:1021B0008160809380008091910082608093910083
:1021C0008091910081608093910080919000816066
:1021D000809390008091C10084608093C1008091C1
:1021E000C10082608093C1008091C10081608093B2
:1021F000C1008091C30081608093C3008091C000C2
:1022000082608093C0008091C20081608093C20090
:1022100080917A00846080937A0080917A00826055
:1022200080937A0080917A00816080937A00809117
:102230007A00806880937A0010929F011092790151
:10224000109278018091D70081608093D70080EA56
:102250008093D80089B5806189BD89B5826089BDC8
:1022600009B400FEFDCF0E9416058091D8008F7C36
:1022700080618093D8008091E000807F8093E000AF
:102280008091E1008E7E8093E1008DE08093E200FA
:10229000559A209A81E0809322020E94A90780919A
:1022A00096028823E9F080919D0290919E022091F0
:1022B0009B0230919C02309335022093340290931C
:1022C000370280933602809182019091830190932E
:1022D0000D0280930C028091220281110E94A907B5
:1022E00080918B028823E9F0809192029091930271
:1022F000209190023091910230933902209338025C
:1023000090933B0280933A028091860190918701DD
:1023100090930F0280930E028091220281110E94FD
:10232000A9078091A1028823E9F08091A8029091E9
:10233000A9022091A6023091A70230933D0220937A
:102340003C0290933F0280933E0280917E019091E7
:102350007F019093110280931002809122028111DB
:102360000E94A907809180028823E9F0809187026A
:10237000909188022091850230918602309331023B
:1023800020933002909333028093320280919C011B
:1023900090919D0190930B0280930A0280912202FA
:1023A00081110E94A9078091890290918A02009769
:1023B00011F00E94471780917E0290917F02009752
:1023C00011F00E944717809162029091630200977A
:1023D00011F00E944717809170029091710200974E
:1023E00011F00E9447178091690290916A0200974C
:1023F00011F00E9447178091AA029091AB020097BA
:1024000011F00E94471780919F029091A0020097BF
:1024100011F00E94471780919402909195020097C5
:1024200011F00E94471780917702909178020097EF
:1024300011F00E94471780915B0290915C02009717
:1024400011F00E94471722242394312CF0E08F2EA4
:10245000F0E09F2E809172028823D9F088E00E94DC
:10246000B2039C0181E02115310509F480E08093DD
:102470007B0190917A01232B09F4C7C1911109C006
:1024800088E00E94660989E00E94410921E02093CA
:102490007A0180917902882381F1E0917A02F091AA
:1024A0007B0280810E94B2032C01E0917A02F091BC
:1024B0007B0282810E94B2033C01E0917A02F0919A
:1024C0007B0284810E94B2039C0180910B01909158
:1024D0000C01452809F0A5C1672809F0B2C1232BDA
:1024E00009F0CCC18436910511F00E94660944E6DA
:1024F00050E050930C0140930B018091A10288237E
:1025000001F1E091A202F091A30280810E94CD042A
:102510003C0190937F0180937E0180917C0190919A
:102520007D016816790669F07092110260921002BE
:102530008091220281110E94A90770927D01609210
:102540007C0180919602882301F1E0919702F0913D
:10255000980280810E94CD043C0190938301809376
:10256000820180918001909181016816790669F05D
:1025700070920D0260920C028091220281110E94E1
:10258000A907709281016092800180918B0288235B
:1025900001F1E0918C02F0918D0280810E94CD04C6
:1025A0003C019093870180938601809184019091F2
:1025B00085016816790669F070920F0260920E022A
:1025C0008091220281110E94A90770928501609278
:1025D000840180918002882309F462C08091050201
:1025E000823008F078C1F8948AEF91E00E941407D5
:1025F00060910102709102028091030290910402A5
:1026000078940E94D81523EC35EF48E650E40E94F8
:1026100028150E949A1529833A834B835C836D8326
:102620007E838F83988740908801509089016090C5
:102630008A0170908B01A3019201550F220B322F5A
:10264000A90129873A874B875C8729813A814B8189
:102650005C8152016301E984FE2C0E2D1E2D0E9427
:102660008E16F1F089819A819195819591099093C7
:102670009D0180939C0190930B0280930A028091AC
:10268000220281110E94A90789819A81AB81BC81B4
:102690008093880190938901A0938A01B0938B0164
:1026A00080916B028823D9F1E0916C02F0916D0268
:1026B00080810E94B2033C0190938F0180938E0130
:1026C00091E06916710409F008C180918C01909124
:1026D0008D01892B39F48AE00E94410970928D01A5
:1026E00060928C01E0916C02F0916D0282810E94F7
:1026F000B2033C0190939301809392018130910544
:1027000009F003C18091900190919101892B39F4D6
:102710008BE00E944109709291016092900180913A
:1027200056028823E1F0E0915702F091580280812F
:102730000E94B2033C01909397018093960180918F
:102740009401909195016816790649F08DE0611029
:10275000F4C00E9466097092950160929401809184
:1027600064028823E1F0E0916502F09166028081C5
:102770000E94B2033C0190939B0180939A01809147
:102780009801909199016816790649F08CE06110E2
:10279000D7C00E9466097092990160929801809159
:1027A0005D02882359F180919C0190919D019C01CB
:1027B000215F3F4F40910D012F31310508F0C3C01B
:1027C0004423E1F0E0915E02F0915F02708061E0ED
:1027D000872D0E94090460E0872D0E94DB03E091B1
:1027E0005E02F0915F02728061E0872D0E94090411
:1027F00060E0872D0E94DB0310920D01811491048B
:1028000009F428CE0E94000021CE992309F441CE7C
:1028100088E00E94410989E00E94660910927A01CD
:1028200038CE6728F9F4232BA1F58430910511F0F7
:102830000E94660984E090E090930C0180930B0164
:102840000EC0232B99F58330910511F00E94660983
:10285000A3E0B0E0B0930C01A0930B0183E00E94D1
:1028600041094BCE232B79F5009711F00E946609A0
:1028700010920C0110920B0180E0F1CF8130910594
:1028800011F00E94660930920C0120920B0181E048
:10289000E6CF8230910511F00E94660922E030E017
:1028A00030930C0120930B0182E0D9CF8530910544
:1028B00011F00E94660945E050E050930C014093EE
:1028C0000B0185E0CCCF8630910511F00E9466099E
:1028D00086E090E0B1CFF8948BCE672809F002CF64
:1028E00080918C0190918D01019709F0FBCE8AE0D7
:1028F0000E9466098AE00E9441098AE00E946609F6
:1029000010928D0110928C01EDCE892B09F007CF2A
:102910008091900190919101019709F000CF8BE097
:102920000E9466098BE00E9441098BE00E946609C3
:102930001092910110929001F2CE0E9441090BCFAA
:102940000E94410928CF4097A4F0411157CFE09150
:102950005E02F0915F02708061E0872D0E940904A1
:102960006EE170E0872D0E944504B1E0B0930D0147
:1029700045CF411143CFE0915E02F0915F0272803A
:1029800061E0872D0E9409046EE170E0872D0E94AE
:10299000450421E020930D0131CF052E97FB1EF455
:1029A00000940E94E41457FD07D00E94F71407FC1E
:1029B00003D04EF40C94E414509540953095219535
:1029C0003F4F4F4F5F4F089590958095709561955B
:1029D0007F4F8F4F9F4F08950E941915A59F900D0F
:1029E000B49F900DA49F800D911D11240895A1E224
:1029F0001A2EAA1BBB1BFD010DC0AA1FBB1FEE1F79
:102A0000FF1FA217B307E407F50720F0A21BB30BC3
:102A1000E40BF50B661F771F881F991F1A9469F73F
:102A200060957095809590959B01AC01BD01CF019B
:102A30000895A29FB001B39FC001A39F700D811D97
:102A40001124911DB29F700D811D1124911D0895B7
:102A50000E943C150C943A160E94331658F00E94BE
:102A60002C1640F029F45F3F29F00C9413165111F5
:102A70000C946E160C9419160E944B1668F3992349
:102A8000B1F3552391F3951B550BBB27AA2762176A
:102A90007307840738F09F5F5F4F220F331F441F77
:102AA000AA1FA9F335D00E2E3AF0E0E832D09150AB
:102AB0005040E695001CCAF72BD0FE2F29D0660F98
:102AC000771F881FBB1F261737074807AB07B0E8DB
:102AD00009F0BB0B802DBF01FF2793585F4F3AF0E1
:102AE0009E3F510578F00C9413160C946E165F3FC0
:102AF000E4F3983ED4F3869577956795B795F79567
:102B00009F5FC9F7880F911D9695879597F908954E
:102B1000E1E0660F771F881FBB1F621773078407EA
:102B2000BA0720F0621B730B840BBA0BEE1F88F7F9
:102B3000E0950895BEE304D008F490E80895BFE35B
:102B400022273327A9010E94531660F19F5748F1AD
:102B5000B91740F1BFE3B91B9927B8503AF4660F93
:102B6000771F881F991FB395D2F316C0B8504AF04B
:102B7000232F342F452F562F672F782F8827B850B3
:102B8000BAF7B85F49F08695779567955795479559
:102B900037952795BA95B9F716F40E941C168894B4
:102BA0000895889460E070E0CB010895E89409C02E
:102BB00097FB3EF490958095709561957F4F8F4F70
:102BC0009F4F9923A9F0F92F96E9BB279395F69586
:102BD000879577956795B795F111F8CFFAF4BB0F04
:102BE00011F460FF1BC06F5F7F4F8F4F9F4F16C068
:102BF000882311F096E911C0772321F09EE8872FF2
:102C0000762F05C0662371F096E8862F70E060E0AD
:102C10002AF09A95660F771F881FDAF7880F969526
:102C2000879597F9089597F99F6780E870E060E0CD
:102C300008959FEF80EC089590958095709560952C
:102C400050954095309521953F4F4F4F5F4F6F4FB7
:102C50007F4F8F4F9F4F089500240A941616170632
:102C600018060906089500240A941216130614067D
:102C700005060895092E0394000C11F4882352F0E0
:102C8000BB0F40F4BF2B11F460FF04C06F5F7F4F98
:102C90008F4F9F4F089557FD9058440F551F59F07F
:102CA0005F3F71F04795880F97FB991F61F09F3F39
:102CB00079F087950895121613061406551FF2CF62
:102CC0004695F1DF08C0161617061806991FF1CFB2
:102CD00086957105610508940895E894BB276627D9
:102CE0007727CB0197F9089597FB072E16F40094E8
:102CF00007D077FD09D00E94971607FC05D03EF457
:102D0000909581959F4F0895709561957F4F089597
:102D1000EE0FFF1F0590F491E02D09942A153B0555
:102D20004C055D056E057F05800791070895AA1B78
:102D3000BB1B51E107C0AA1FBB1FA617B70710F0A6
:102D4000A61BB70B881F991F5A95A9F780959095D8
:102D5000BC01CD0108950F931F93CF93DF93823071
:102D6000910510F482E090E0E091AE02F091AF02A4
:102D700030E020E0B0E0A0E0309799F42115310573
:102D800009F44AC0281B390B24303105D8F58A8153
:102D90009B816115710589F1FB0193838283FE019B
:102DA00011C0408151810281138148175907E0F019
:102DB0004817590799F4109761F012960C931297DF
:102DC00013961C933296CF01DF91CF911F910F91F3
:102DD00008950093AE021093AF02F4CF2115310590
:102DE00051F04217530738F0A901DB019A01BD01E8
:102DF000DF01F801C1CFEF01F9CF9093AF028093CB
:102E0000AE02CDCFFE01E20FF31F819391932250CA
:102E1000310939832883D7CF2091AC023091AD029C
:102E2000232B41F420912201309123013093AD02F4
:102E30002093AC0220912001309121012115310510
:102E400041F42DB73EB74091240150912501241B38
:102E5000350BE091AC02F091AD02E217F307A0F45C
:102E60002E1B3F0B2817390778F0AC014E5F5F4FE0
:102E70002417350748F04E0F5F1F5093AD02409363
:102E8000AC02819391939FCFF0E0E0E09CCFCF9391
:102E9000DF930097E9F0FC01329713821282A09130
:102EA000AE02B091AF02ED0130E020E01097A1F446
:102EB00020813181820F931F2091AC023091AD02AD
:102EC0002817390709F061C0F093AD02E093AC0216
:102ED000DF91CF910895EA01CE17DF07E8F54A8127
:102EE0005B819E0141155105B1F7E901FB83EA833E
:102EF00049915991C40FD51FEC17FD0761F48081EA
:102F000091810296840F951FE901998388838281BC
:102F100093819B838A83F0E0E0E012968D919C91EF
:102F200013970097B9F52D913C911197CD01029619
:102F3000820F931F2091AC023091AD022817390700
:102F400039F6309751F51092AF021092AE02B0935D
:102F5000AD02A093AC02BCCFD383C2834081518128
:102F6000840F951FC817D90761F44E5F5F4F8881A2
:102F70009981480F591F518340838A819B81938394
:102F800082832115310509F0B0CFF093AF02E093B1
:102F9000AE029ECFFD01DC01C0CF13821282D7CFDB
:102FA000FB01DC0102C001900D9241505040D8F766
:062FB0000895F894FFCF24
:102FB60000C18081000000FFFFFFFF64000100E107
:102FC600000000000000DA05DA05DA05DA05DA05A0
:102FD6000000B002800000000000DB05570619065D
:102FE600FE0500000000FA01C4050F0310025D0291
:042FF6001B0239027F
:00000001FF
